S00D00004F4C4544312E73726563C2
S21440000010274020552B4000052C4000052C400072
S214400010052C4000052C4000052C40000000000048
S214400020000000000000000000000000052C40001A
S214400030052C400000000000052C4000052C400028
S214400040052C4000052C4000052C40002131400086
S214400050052C4000052C4000052C4000052C400097
S214400060052C4000000000000D27400025274000DA
S2144000703D274000052C4000052C4000052C400044
S214400080552740006D274000052C4000052C4000B9
S214400090052C4000052C4000052C40005531400002
S2144000A081314000052C4000052C4000052C4000C6
S2144000B0052C4000052C4000052C4000052C400037
S2144000C0052C4000052C4000052C4000052C400027
S2144000D000000000052C400000000000052C4000F9
S2144000E0052C4000052C4000052C4000052C400007
S2144000F0052C4000052C4000052C4000052C4000F7
S214400100052C4000052C4000052C4000052C4000E6
S214400110052C400000000000000000000000000029
S214400120052C4000052C4000052C4000052C4000C6
S214400130052C400000000000052C4000052C400027
S21440014010B5054C237833B9044B13B10448AFF3CC
S21440015000800123237010BD4C04402000000000A6
S214400160404540000C4B43B10C480D4910B5AFF329
S21440017000800C48036823B910BD0A48036833B9A9
S2144001807047094B002BF7D0BDE810401847064B88
S214400190002BF5D0184700BF000000004045400047
S2144001A050044020404540000000000080B483B02A
S2144001B000AF78600B467B807A88074B1B681343FA
S2144001C043F480227B681A60002318460C37BD46ED
S2144001D05DF8047B704700BF6804402080B483B05D
S2144001E000AF78600B46FB70FB78002B0DD0104BB1
S2144001F01B6843F080730E4A13607B681A680C4B8A
S2144002001B681A437B681A600CE0094B1B6823F096
S2144002108073074A13607B681A68054B1B681A434D
S2144002207B681A6000BF0C37BD465DF8047B70479C
S2144002306804402080B485B000AF786039607B6841
S2144002401B68FB60FA683B681343FB60064B1B6801
S214400250FA681343FB607B68FA681A6000BF14377D
S214400260BD465DF8047B70476804402080B485B086
S21440027000AF786039600023FB607B681B68FB60DA
S2144002803B68DB43FA681340FB60074B1B68FA6821
S2144002901343FB607B68FA681A6000BF1437BD469C
S2144002A05DF8047B704700BF6804402080B485B08A
S2144002B000AF78607B689B68FB6002E07B689B6869
S2144002C0FB607B689A68FB689A42F7D1FB681846E1
S2144002D01437BD465DF8047B704780B483B000AFEA
S2144002E078607B68DB6818460C37BD465DF8047B53
S2144002F07047000080B584B000AF786039607B6896
S2144003001B6803F48033FB604FF480310D480E4B7E
S21440031098473B68002B04D17B684FF0FF325A6009
S21440032003E03B685A1E7B685A60FB68002B04D08B
S2144003304FF480310348054B984700231846103742
S214400340BD4680BD30180E406D024000350240006C
S21440035080B483B000AF78607B685B6803F00203CC
S214400360002B01D0012300E0002318460C37BD4681
S2144003705DF8047B7047000080B582B000AF7860BF
S2144003807868034B984700BF0837BD4680BD00BF1E
S214400390492A400080B582B000AF78607B68094A41
S2144003A0934203D11520084B984706E07B68074ADE
S2144003B0934202D12A20044B984700BF0837BD46D7
S2144003C080BD00BF008000407903400000800540AB
S2144003D080B483B000AF786039607B685B6823F494
S2144003E070227B685A607B685A683B681B0403F43B
S2144003F070231A437B685A6000BF0C37BD465DF8D1
S214400400047B704780B584B000AF786008461146DC
S2144004101A4603467B800B467B7013463B7043F67A
S2144004209823FB6006E0FB685A1EFA60002B01D159
S214400430012320E07B681B6903F00203002BF2D007
S21440044078680F4B98470346002B0ED07A887B7807
S2144004501B0403F470231343BB603B78002B06D089
S214400460BB6843F08073BB6001E07B88BB607B6801
S214400470BA68DA60002318461037BD4680BD00BF14
S2144004805103400080B485B000AFF860B9607A6030
S2144004907B68002B0CD0FB68BA680C3253F82230CD
S2144004A043F00101FB68BA680C3243F822100BE0B7
S2144004B0FB68BA680C3253F8223023F00101FB681F
S2144004C0BA680C3243F8221000BF1437BD465DF8B8
S2144004D0047B704780B485B000AFF860B9607A603E
S2144004E07B68002B0CD0FB68BA680C3253F822307D
S2144004F043F00201FB68BA680C3243F822100BE066
S214400500FB68BA680C3253F8223023F00201FB68CD
S214400510BA680C3243F8221000BF1437BD465DF867
S214400520047B704780B485B000AFF860B9607A60ED
S2144005307B68042B18D1FB68BA680C3253F822301B
S21440054023F00801FB68BA680C3243F82210FB68B7
S214400550BA680C3253F8223043F00401FB68BA689C
S2144005600C3243F822102AE07B68002B18D1FB6837
S214400570BA680C3253F8223023F00801FB68BA6898
S2144005800C3243F82210FB68BA680C3253F822301B
S21440059023F00401FB68BA680C3243F822100EE0E0
S2144005A07B68082B0BD1FB68BA680C3253F82230B4
S2144005B043F00801FB68BA680C3243F8221000BFCB
S2144005C01437BD465DF8047B704780B485B000AFF5
S2144005D0F860B9607A60FB68BA680C3253F822302B
S2144005E023F0F001FB68BA680C3243F82210FB682F
S2144005F0BA680C3253F822207B6842EA0301FB6853
S214400600BA680C3243F8221000BF1437BD465DF876
S214400610047B704780B485B000AF786039603A6834
S2144006207B6813445A1E7B68B2FBF3F3FB60FB689F
S214400630002B02DDFB68FF2B02DD4FF0FF3301E0AD
S214400640FB681BB218461437BD465DF8047B7047FE
S21440065080B485B000AFF860B9601346FB71FB7993
S214400660002B02D14FF0FF331BE0FB68BA680C3218
S21440067053F8223023F47F41FB68BA680C3243F8C3
S2144006802210FB68BA680C3253F82220FB791B0212
S2144006909BB242EA0301FB68BA680C3243F8221068
S2144006A0002318461437BD465DF8047B704780B477
S2144006B087B000AFF860B9607A60FA68BB689B01A3
S2144006C013447B617B6902221A607B694FF0FF32DC
S2144006D09A627B691B6A7B697A685A6000BF1C37DE
S2144006E0BD465DF8047B704780B483B000AF786049
S2144006F039607A683B689B01134405221A6000BF44
S2144007000C37BD465DF8047B704780B483B000AFBD
S214400710786039607A683B689B01134402221A600D
S21440072000BF0C37BD465DF8047B704780B485B08B
S21440073000AFF860B9607A60FA68BB689B01134402
S2144007401C337A681A6000BF1437BD465DF8047BD8
S214400750704780B487B000AFF860B9607A60FA68D6
S214400760BB689B0113447B617B697A685A6200BF11
S2144007701C37BD465DF8047B704780B485B000AF3B
S214400780786039607A683B689B011344FB60FB687D
S2144007901B6A18461437BD465DF8047B704780B424
S2144007A08DB000AFF860B9607A603B6002233B6171
S2144007B008237B612023BB618023FB61BB6BDB0B83
S2144007C03B620023FB621AE0FB6A9B0007F13002A3
S2144007D0134453F8203CBA68B2FBF3F3BB62BB6ADF
S2144007E01B0C7B62FA68BB6A9A4201D9002323E05D
S2144007F0FA687B6A9A4206D2FB6A0133FB62FB6A5E
S214400800042BE1D900E000BFFB6A042B01D900238A
S21440081012E07B68002B08D0FB6A9B0007F1300291
S214400820134453F8202C7B681A603B68002B02D098
S2144008303B68FA6A1A60012318463437BD465DF8AD
S214400840047B704780B483B000AF0346FB71094910
S21440085097F907305B09FA7902F01F02012000FA87
S21440086002F241F8232000BF0C37BD465DF8047BFA
S214400870704700BF00E100E080B483B000AF03469D
S214400880FB71094997F907305B09FA7902F01F02B4
S214400890012000FA02F2203341F8232000BF0C3733
S2144008A0BD465DF8047B704700E100E080B483B04D
S2144008B000AF0346FB71094997F907305B09FA799F
S2144008C002F01F02012000FA02F2603341F82320B2
S2144008D000BF0C37BD465DF8047B704700E100E082
S2144008E080B483B000AF03463960FB7197F9073098
S2144008F0002B0BDA0D49FB7903F00F03043B3A68F3
S214400900D2B25201D2B20B441A7609E0084997F99E
S21440091007303A68D2B25201D2B20B4483F8002371
S21440092000BF0C37BD465DF8047B704700ED00E025
S21440093000E100E080B483B000AF78607B68072BAE
S21440094025D801A252F823F0690940006F094000FB
S214400950750940007B0940007F094000830940003C
S214400960870940008B0940004FF4FA4310E04FF4EB
S21440097000430DE04FF400430AE0084B08E0084B04
S21440098006E0084B04E0074B02E0064B00E000237D
S21440099018460C37BD465DF8047B704700093D009D
S2144009A000127A00001BB70080B500AF0620054B4A
S2144009B09847024613469B0013449A001344184631
S2144009C080BD00BF3509400080B500AF024B984758
S2144009D00346184680BD00BFA909400090B58BB0BD
S2144009E002AFF860B9607A603B601D4B9847F8618B
S2144009F0BB6818461B4B9847386807F1140107F147
S214400A001802FB6900930B46F969174CA0477968B2
S214400A107B6943F480431A46F868144B98477968D4
S214400A20BB69FA69B2FBF3F23B68B2FBF3F31A46D2
S214400A30F8680F4B9847BB685BB2042118460D4BCD
S214400A409847BB685BB218460B4B98477B681022AA
S214400A501946F868094B984700BF2437BD4690BDF5
S214400A60C9094000492A40009F074000AF064000A1
S214400A702D074000E108400045084000530740006D
S214400A8080B586B000AFF860B9607A60DFED266A60
S214400A9097ED037AC6EE877AFDEEE77AC7ED007AE1
S214400AA03B88FB8200212148214B9847FB8A194608
S214400AB01E48204B98477B6803F48033002B12D0A7
S214400AC01A481D4B9847386100BF18481A4B98473C
S214400AD002463B699A42F8D0BA683B6913441946C5
S214400AE01248164B98470320154B98470320154B42
S214400AF0984704210320144B98470320134B9847EC
S214400B007B6803F44033002B04D079680748104BC9
S214400B10984704E04FF4403104480E4B984700BFD6
S214400B201837BD4680BD00BF0000004730180E4055
S214400B30DD014000AD014000AD024000F50240003E
S214400B4079084000AD084000E108400045084000F4
S214400B50350240006D02400080B483B000AF78603C
S214400B60044A7B68136000BF0C37BD465DF8047BC3
S214400B70704700BF6C04402080B483B000AF03468B
S214400B80FB710B46BB7113467B71084B1A68FB79A9
S214400B90DB011946BB790B4413447A791A7000BFBF
S214400BA00C37BD465DF8047B704700BF6C044020A0
S214400BB080B483B000AF03460A46FB711346BB7150
S214400BC0074B1A68FB79DB011946BB790B44134483
S214400BD01B7818460C37BD465DF8047B704700BF4F
S214400BE06C04402090B585B000AF044608461146D8
S214400BF01A462346FB710346BB710B467B71134670
S214400C003B71FA797B791344802B06DDFB79C3F17F
S214400C10FF2303F57F0380337B71BB79DB08FB73CF
S214400C20BA79FB7BDB00D31A012202FA03F3BB73CB
S214400C307B79002B66D03B79012B1CD0022B5BD0F6
S214400C40002B3BD05FE0FA797B791344DAB2FB7B2A
S214400C50114618462D4B984703467B737A7BBB7BE1
S214400C6013437B73FA797B791344D9B27A7BF87B4A
S214400C700023274CA0477B795A1E7A71002BE2D17D
S214400C8041E0FA797B791344DAB2FB7B1146184689
S214400C901E4B984703467B7397F90E30DB435AB298
S214400CA097F90D3013405BB27B73FA797B79134426
S214400CB0D9B27A7BF87B0023154CA0477B795A1E25
S214400CC07A71002BDDD11EE0FA797B791344DAB2D3
S214400CD0FB7B114618460D4B984703467B737A7B41
S214400CE0BB7B53407B73FA797B791344D9B27A7BCA
S214400CF0F87B0023064CA0477B795A1E7A71002B5E
S214400D00E2D100E000BF1437BD4690BD211140003F
S214400D109D10400090B583B000AF0446084611468B
S214400D201A462346FB710346BB710B467B7113463E
S214400D303B713B79002B0FD008E0BA793B791344DE
S214400D40D9B23B7E7A79F879054CA0473B795A1E52
S214400D503A71002BF1D100E000BF0C37BD4690BD84
S214400D60E50B400080B586B000AF3B600346FB71A4
S214400D700B46BB7113467B71BB793B747B79FB7327
S214400D803B681B7ADB08FB743B681B7A03F007035F
S214400D90DBB2002B02D0FB7C0133FB74FB7C9AB2A7
S214400DA03B685B7A9BB212FB03F39AB2FB793968D5
S214400DB0897A5B1A9BB212FB03F3BB813B685A6885
S214400DC0BB8913447B613B685B7ABB740023BB736F
S214400DD03B681B7AFB7200237B741EE07B7C03F02F
S214400DE00703DBB2002B05D17B691B78BB737B699D
S214400DF001337B6197F90E30002B05DAF97B3B7C9B
S214400E00012218460E4B98473B7C01333B74BB7B14
S214400E105B00BB737B7C01337B747A7CFB7A9A42A3
S214400E20DCD3FB7B0133FB73BB793B74BB7C013B60
S214400E30BB74BB7C002BC9D100BF1837BD4680BDF4
S214400E400110400090B585B002AF3B600346FB7191
S214400E500B46BB7113467B713B681A7A3B685C7ADB
S214400E607979B879002300932346094CA0473B681C
S214400E701B78002B00D006E07A79B979F8793B6880
S214400E80044CA04700BF00BF0C37BD4690BD00BF16
S214400E90150D4000650D400090B587B000AFF86076
S214400EA07B600B46FB721346BB72FB7AFB75FB6896
S214400EB01B780A2B09D1FB7DFB727B685A7ABB7A7A
S214400EC01344DBB20133BB720FE0FB681B780D2B7B
S214400ED00BD0FB681878BA7AF97A7B68084CA0473A
S214400EE07B681A7AFB7A1344FB72FB680133FB601B
S214400EF0FB681B78002BDAD100BF1C37BD4690BD7F
S214400F00450E400080B582B000AF0346FB71FB79CA
S214400F1003F00F03FB71FB7963F04F03DBB2184617
S214400F20024B984700BF0837BD4680BD09184000B1
S214400F3080B582B000AF0346FB71FB7903F07F03B8
S214400F40FB71FB791B09DBB243F01003DBB218469A
S214400F50064B9847FB7903F00F03DBB21846034B6A
S214400F60984700BF0837BD4680BD00BF09184000FF
S214400F7080B582B000AF0346FB71FB7903F03F03B8
S214400F80FB71FB7943F04003DBB21846024B9847AF
S214400F9000BF0837BD4680BD0918400090B583B0F5
S214400FA000AF1248124B9847124B98470020124BFE
S214400FB098470023FB7112E00023BB7108E0B97923
S214400FC0F879012300220D4CA047BB790133BB7151
S214400FD097F90630002BF2DAFB790133FB71FB7987
S214400FE0032BE9D900BF0C37BD4690BD70044020A6
S214400FF0590B400059174000710F40009D104000AB
S21440100090B585B000AF0346FB710B46BB711346E7
S2144010107B7197F90730002B38DBBB791F2B35D80F
S214401020BB79DB08BB73BA79BB7BDB00D31A0122E2
S21440103002FA03F37B73FA79BB7B11461846154BCD
S21440104098470346FB737B79012B04D0022B11D0C3
S214401050002B05D013E0FA7B7B7B1343FB730EE03B
S21440106097F90D30DB435AB297F90F3013405BB215
S214401070FB7304E0FA7B7B7B5340FB7300BFFA7B39
S214401080F979B87B0023044CA04700E000BF143732
S214401090BD4690BD211140009D10400090B583B0E4
S2144010A000AF0446084611461A462346FB710346DF
S2144010B0BB710B467B7113463B713B7983F0010352
S2144010C0DBB2002B0AD0BA79FB79114618460F4B93
S2144010D0984703461A467B79934212D07A79B97973
S2144010E0FB7918460A4B9847FB791846094B9847B0
S2144010F0BB791846084B98477B791846074B984764
S21440110000E000BF0C37BD4690BD00BFB10B4000AD
S214401110790B4000050F4000310F4000AD184000ED
S21440112080B582B000AF03460A46FB711346BB71DA
S214401130BA79FB7911461846034B9847034618463A
S2144011400837BD4680BD00BFB10B400080B483B0B9
S21440115000AF78607B68072B25D801A252F823F0B1
S21440116081114000871140008D11400093114000CE
S214401170971140009B1140009F114000A311400072
S2144011804FF4FA4310E04FF400430DE04FF40043B1
S2144011900AE0084B08E0084B06E0084B04E0074B23
S2144011A002E0064B00E0002318460C37BD465DF8CB
S2144011B0047B704700093D0000127A00001BB70010
S2144011C080B500AF0620054B9847024613469B0065
S2144011D013449A001344184680BD00BF4D1140008A
S2144011E080B500AF024B98470346184680BD00BF07
S2144011F0C111400080B500AF024B984703465B08DC
S214401200184680BDC111400080B489B000AF7860F8
S2144012107B68FB61FB69BB61BB695A09FB697B6103
S2144012207B6903F01F03012101FA03F33A61FB6077
S2144012303B69BB60BA68064B13445B021A46FB68C0
S214401240136000BF2437BD465DF8047B704700BF7F
S2144012500707200080B48DB000AF786039607B68A7
S214401260FB623B68BB62FB6A7B627B6A5A09FB6A2D
S2144012703B623B6A03F01F03012101FA03F3FA6164
S214401280BB61BB6A7B61FB693B613A69374B134480
S2144012905B02FB607B6903F00803002B03D0FB680E
S2144012A0BA695A6602E0FB68BA691A667B6903F057
S2144012B01003002B04D0FB68BA69C3F8942003E0FF
S2144012C0FB68BA69C3F890207B6903F02003002BC3
S2144012D003D0FB68BA691A6502E0FB68BA695A65CA
S2144012E07B6903F0C003002B03D0FB68BA691A621F
S2144012F002E0FB68BA695A627B6903F08003002B00
S21440130004D0FB68BA69C3F8842003E0FB68BA6976
S214401310C3F880207B6903F00103002B06D0FB68EE
S2144013201A6FBB691A43FB681A6706E0FB681A6FB8
S214401330BB69DB431A40FB681A677B6903F002030C
S214401340002B06D0FB685A6FBB691A43FB685A6786
S21440135006E0FB685A6FBB69DB431A40FB685A6776
S21440136000BF3437BD465DF8047B70470707200052
S21440137080B48DB000AF78600B46FB707B68FB6234
S214401380FB7887F82B30FB6A7B627B6A3B623B6A62
S2144013905B09FB61FA69174B13445B02BB6197F824
S2144013A02B30012B09D1FB6A7B617B6903F01F035D
S2144013B001229A40BB691A610CE097F82B30002B4B
S2144013C008D1FB6A3B613B6903F01F0301229A4048
S2144013D0BB695A61FB6AFB60FB6803F01F0301228E
S2144013E09A40BB69C3F8A02000BF3437BD465DF8BD
S2144013F0047B70470707200080B48BB000AF78604E
S2144014000B46FB707B687B62FB7887F823307B6AF1
S214401410FB61FB69BB61BB695B097B617A69104B09
S21440142013445B023B6197F82330002B09D07B6A5C
S214401430FB60FB6803F01F0301229A403B691A6376
S21440144008E07B6ABB60BB6803F01F0301229A403A
S2144014503B695A6300BF2C37BD465DF8047B704736
S2144014600707200080B483B000AF78607B68802296
S2144014701A6000BF0C37BD465DF8047B704780B4E9
S21440148083B000AF78607B6801221A6000BF0C37DB
S214401490BD465DF8047B704780B483B000AF78608B
S2144014A07B6802221A6000BF0C37BD465DF8047B9D
S2144014B0704780B483B000AF78607B685B6843F069
S2144014C001027B685A6000BF0C37BD465DF8047B5E
S2144014D0704780B483B000AF78607B685B6823F069
S2144014E002027B685A6000BF0C37BD465DF8047B3D
S2144014F0704780B483B000AF78607B685B6843F029
S21440150010027B685A6000BF0C37BD465DF8047B0E
S214401510704780B483B000AF78607B685B6823F028
S21440152080027B685A6000BF0C37BD465DF8047B7E
S2144015307047000080B582B000AF0F4B9847024618
S2144015400E4BA3FB02239A0C13469B0013445B00EE
S2144015507B60002151200A4B98477868094B984792
S21440156001215120064B98477868064B984700BFA4
S2144015700837BD4680BD00BFE111400083DE1B43F7
S214401580F91340000100402080B500AFAF20024B69
S214401590984700BF80BD00BF0918400080B582B0A4
S2144015A000AF0346FB718120054B9847FB791846F0
S2144015B0034B9847FB7918460837BD4680BD00BFA9
S2144015C00918400080B500AFA620024B984700BFE0
S2144015D080BD00BF0918400090B583B000AF012120
S2144015E05120464B984701212320444B98470821D9
S2144015F05120434B984708212320414B98472320AE
S214401600404B984751203F4B9847012123203E4B63
S2144016109847012151203C4B984700234FF48002C5
S2144016204FF0805139483A4CA04700234FF40012FF
S2144016304FF080513548364CA04700234FF000729B
S2144016404FF080513148324CA04700234FF480027F
S2144016504FF080512D482E4CA04700234FF40012E7
S2144016604FF0805129482A4CA04700234FF0007283
S2144016704FF080512548264CA0472648264B984791
S2144016802448264B98472348254B98470822012153
S2144016902048244B9847002201211E48224B984759
S2144016A0002201211B48214B98471A48204B984757
S2144016B00022012117481F4B984716481E4B984753
S2144016C014481E4B98471E4B9847034619461D48DC
S2144016D01D4B984703467B607B68DBB21A46012168
S2144016E00C481A4B98470B48194B98470948194BD2
S2144016F0984700BF0C37BD4690BD00BF71134000F1
S2144017005512400009124000F913400000140E40E4
S214401710F1234000008000409914400065144000CA
S214401720B31440002505400085044000D504400021
S214401730D3144000CB05400013154000F31440007E
S214401740F511400040420F0015064000510640008B
S214401750950340007F14400080B500AF234B984768
S214401760234B984701215120224B9847A820224BD3
S21440177098471F20204B9847D3201F4B9847002060
S2144017801D4B984740201C4B9847A1201A4B984722
S214401790C820194B9847DA20174B98470220164B1B
S2144017A098478F20154B9847A420134B9847144BC7
S2144017B09847D520104B984780200F4B98478D2050
S2144017C00D4B984714200C4B9847DB200A4B984704
S2144017D04020094B9847D920074B9847F120064BA5
S2144017E09847084B984700BF80BD00BFD9154000BA
S2144017F035154000F9134000091840009D1540007B
S214401800C515400089154000F0B583B000AF0346CB
S214401810FB71002123201C4B984701211B481C4B81
S2144018209847FB7999B2012301221848194CA047E2
S214401830194B9847034619464FF000020B4614468C
S214401840A60046EA93769D002B4634465B1844EB4A
S2144018500204DB1844EB0404194622460F4B4FF0B3
S2144018600004CD1842EB0406284631460C4C0D4A7F
S2144018704FF00003A04703460C4618460A4B9847CD
S21440188000BF0C37BD46F0BDF91340000080004055
S214401890D103400005044000E1114000DF835A00B8
S2144018A009364000E0835A0001004020F0B583B07E
S2144018B000AF0346FB71012123201C4B98470121B2
S2144018C01B481C4B9847FB7999B2012301221848C4
S2144018D0194CA047194B9847034619464FF000024B
S2144018E00B461446A60046EA93769D002B463446A1
S2144018F05B1844EB0204DB1844EB0404194622460A
S2144019000F4B4FF00004CD1842EB040628463146F4
S2144019100C4C0D4A4FF00003A04703460C461846B1
S2144019200A4B984700BF0C37BD46F0BDF913400040
S21440193000800040D103400005044000E111400013
S214401940DF835A0009364000E0835A0001004020F9
S21440195080B582B000AF78607B68072B31D801A293
S21440196052F823F0C1194000851940008D194000F7
S214401970951940009D194000A5194000AD1940003A
S214401980B71940000020114B98471AE001200F4B32
S214401990984716E000200E4B984712E010200C4B5C
S2144019A098470EE020200A4B98470AE03E21002048
S2144019B0084B984705E03E210120064B984700E03B
S2144019C000BF00BF0837BD4680BD00BF8528400029
S2144019D0F12840006129400080B582B000AF7860B1
S2144019E07B68072B26D801A252F823F00D1A400038
S2144019F0111A4000111A4000231A4000231A4000D2
S214401A00231A4000231A4000231A4000012312E004
S214401A100B4B98470346002B14BF01230023DBB231
S214401A2009E0084B98470346002B14BF01230023C8
S214401A30DBB200E0002318460837BD4680BD00BF35
S214401A40BD284000D929400080B483B000AF7860FC
S214401A507B68072B25D801A252F823F07D1A400058
S214401A60831A4000891A40008F1A4000931A40009B
S214401A70971A40009B1A40009F1A40004FF4FA43C2
S214401A8010E04FF400430DE04FF400430AE0084BEB
S214401A9008E0084B06E0084B04E0074B02E0064B24
S214401AA000E0002318460C37BD465DF8047B7047BF
S214401AB000093D0000127A00001BB70080B582B0D6
S214401AC000AF0346FB7100BFFB791846054B9847AD
S214401AD0034683F00103DBB2002BF5D100BF083785
S214401AE0BD4680BDD919400080B586B000AFF860CD
S214401AF07A603B600B46FB727B68002B07D13B68E5
S214401B00002B04D1FB684FF470021A6019E0FB7A90
S214401B1018460E4B984702467B68B2FBF3F37B6150
S214401B207B693A6802FB03F37B613B68013B1A041E
S214401B30074B13407A68D2B2134343F47C52FB6897
S214401B401A6000BF1837BD4680BD00BF491A400026
S214401B500000FF0780B582B000AF786039603B6810
S214401B60002B08D1094B9847094A7B681B6843F00D
S214401B700053936205E0064A7B681B6843F4803353
S214401B80D36100BF0837BD4680BD00BFF529400081
S214401B9000060E4080B582B000AF78607B68002BB0
S214401BA003D1054B9847034602E0044B984703464B
S214401BB018460837BD4680BD112A40002D2A4000F1
S214401BC080B582B000AF0346FB71FB79033B042B24
S214401BD008D8FB791846064B9847FB791846054BBC
S214401BE0984700E000BF00BF0837BD4680BD00BF35
S214401BF051194000BD1A400080B582B000AF7860F1
S214401C0000BF7868044B98470346002BF9D0002362
S214401C1018460837BD4680BD951B400080B500AFCE
S214401C200620054B9847024613469B0013449A00ED
S214401C301344184680BD00BF491A400080B500AF27
S214401C40024B98470346184680BD00BF1D1C400007
S214401C5090B583B000AF1348134B98470620134BFC
S214401C609847381D192301220621114CA0473B1DD9
S214401C70002118460F4B984700200F4B98470220EC
S214401C800E4B984700200E4B98470E4B98470E4BEE
S214401C90984703461846044B984700BF0C37BD4646
S214401CA090BD00BF00A3E111752D4000C11B400050
S214401CB0E91A4000551B4000F91B400085274000AC
S214401CC0012840000D2C40003D1C400080B400AF71
S214401CD0BFF34F8FBFF36F8F094B0022C3F85022DC
S214401CE0074A074B5B6943F400335361BFF34F8F9A
S214401CF0BFF36F8F00BFBD465DF8047B704700BFE3
S214401D0000ED00E080B48BB000AF264BD3F88030B7
S214401D10FB61FB695B0BC3F30E037B62FB6903F05D
S214401D2007030433BB61FB69DB08C3F309037B612C
S214401D307B69BB60BB68B3FA83F37B607B68DBB2CE
S214401D4003F01F033B61BFF34F8F7B693B623A6AE8
S214401D503B6902FA03F319467A6ABB6902FA03F34F
S214401D600B43FB600F4AFB68C2F860323B6A5A1E60
S214401D703A62002BEBD17B6A5A1E7A62002BE4D182
S214401D80BFF34F8F074A074B5B6943F48033536179
S214401D90BFF34F8FBFF36F8F00BF2C37BD465DF844
S214401DA0047B704700ED00E080B582B000AF7860FD
S214401DB07868034B984700BF0837BD4680BD00BFD4
S214401DC0492A400080B500AF0A20084B98470B20B0
S214401DD0064B98470C20054B98471020034B9847D6
S214401DE01120024B984700BF80BD00BFA91D400090
S214401DF080B48DB000AF786039607B68FB623B682A
S214401E00BB62FB6A7B627B6A5A09FB6A3B623B6A3F
S214401E1003F01F03012101FA03F3FA61BB61BB6AB9
S214401E207B61FB693B613A69374B13445B02FB605D
S214401E307B6903F00803002B03D0FB68BA695A6637
S214401E4002E0FB68BA691A667B6903F01003002B50
S214401E5004D0FB68BA69C3F8942003E0FB68BA690B
S214401E60C3F890207B6903F02003002B03D0FB6867
S214401E70BA691A6502E0FB68BA695A657B6903F07D
S214401E80C003002B03D0FB68BA691A6202E0FB6805
S214401E90BA695A627B6903F08003002B04D0FB6862
S214401EA0BA69C3F8842003E0FB68BA69C3F88020A7
S214401EB07B6903F00103002B06D0FB681A6FBB69F1
S214401EC01A43FB681A6706E0FB681A6FBB69DB4378
S214401ED01A40FB681A677B6903F00203002B06D0A2
S214401EE0FB685A6FBB691A43FB685A6706E0FB6893
S214401EF05A6FBB69DB431A40FB685A6700BF3437EA
S214401F00BD465DF8047B70470707200080B48DB05F
S214401F1000AF78600B46FB707B68FB62FB7887F807
S214401F202B30FB6A7B627B6A3B623B6A5B09FB61E8
S214401F30FA69174B13445B02BB6197F82B30012BB1
S214401F4009D1FB6A7B617B6903F01F0301229A403B
S214401F50BB691A610CE097F82B30002B08D1FB6A5E
S214401F603B613B6903F01F0301229A40BB695A61FB
S214401F70FB6AFB60FB6803F01F0301229A40BB69C3
S214401F80C3F8A02000BF3437BD465DF8047B7047D9
S214401F900707200080B48BB000AF78600B46FB701C
S214401FA07B687B62FB7887F823307B6AFB61FB6942
S214401FB0BB61BB695B097B617A69104B13445B026A
S214401FC03B6197F82330002B09D07B6AFB60FB68A7
S214401FD003F01F0301229A403B691A6308E07B6ABC
S214401FE0BB60BB6803F01F0301229A403B695A63FB
S214401FF000BF2C37BD465DF8047B704707072000BE
S21440200080B48DB000AF78600B46FB707B68FB6297
S214402010FB7887F82B30FB6A7B627B6A5A09FB6A3F
S2144020203B623B6A03F01F03012101FA03F3FA61A6
S214402030BB6197F82B30FB75FB693B613A69234BD4
S21440204013445B02FB60FB7D013B032B2ED801A2B1
S21440205052F823F0892040009B2040006520400035
S21440206077204000FB68BA69C3F8C420FB68BA69A9
S214402070C3F8D0201FE0FB68BA69C3F8C420FB68E9
S214402080BA69C3F8D42016E0FB68BA69C3F8C02022
S214402090FB68BA69C3F8D0200DE0FB68BA69C3F89C
S2144020A0C020FB68BA69C3F8D42004E0FB68BA696C
S2144020B0C3F8B42003E0FB68BA69C3F8B02000BF99
S2144020C03437BD465DF8047B704700BF07072000E5
S2144020D080B400AFBFF34F8FBFF36F8F0C4A0C4BEB
S2144020E0D3F8903223F00103C2F89032084A084BE6
S2144020F0D3F8943223F00103C2F89432BFF34F8FE3
S214402100BFF36F8F00BFBD465DF8047B704700BFCE
S21440211000ED00E080B500AF134B4FF400425A602C
S214402120124B9847124B9847124B134A5A60114B22
S214402130124A5A60124B9847124B98470121482042
S214402140114B984701214820104B984700210B20FF
S2144021500D4B984788210B200D4B984702210B20AA
S2144021600C4B984700BF80BD50180E40CD1C400019
S214402170051D4000000C0E400C08005A0C07005A83
S214402180D1204000C51D40000D1F4000951F400057
S214402190F11D40000120400080B485B000AFF860DB
S2144021A0B9607A607B68002B03D0FB68BA685A66D1
S2144021B002E0FB68BA681A6600BF1437BD465DF891
S2144021C0047B704780B483B000AF786039607B682A
S2144021D03A681A6300BF0C37BD465DF8047B70470B
S2144021E080B483B000AF786039607B683A685A63E1
S2144021F000BF0C37BD465DF8047B704780B487B09F
S21440220000AFF860B9607A60FB687A685A64BB6869
S214402210B3F1C05F4AD0B3F1C05F08D8B3F1006FE6
S21440222016D0B3F1805F2CD0002B69D064E0B3F1B8
S214402230205F65D0B3F1205F03D8B3F1005F4AD08A
S2144022405AE0B3F1405F5BD0B3F1605F58D053E0E3
S214402250FB681B6F7B61FB681A6F7B68D9437B69A1
S2144022600B401A40FB681A67FB685B6F7B61FB6834
S2144022705A6F7B68D9437B690B401A40FB685A67A4
S2144022803AE0FB681B6F7B617A687B691A43FB68A0
S2144022901A67FB685B6F7B61FB685A6F7B68D94344
S2144022A07B690B401A40FB685A6725E0FB681B6F4A
S2144022B07B61FB681A6F7B68D9437B690B401A4089
S2144022C0FB681A67FB685B6F7B617A687B691A43B9
S2144022D0FB685A6710E0FB681B6F7B617A687B6916
S2144022E01A43FB681A67FB685B6F7B617A687B6999
S2144022F01A43FB685A6700BFFB687A685A6000E07A
S21440230000BF1C37BD465DF8047B704780B584B07F
S21440231000AFF860B9607A60B968F868194B9847BA
S2144023207B6803F001031A46B968F868164B98476D
S2144023307B6803F00A03002B03D0FB68BA681A6276
S21440234002E0FB68BA685A627B6803F00203002B1F
S21440235004D0FB68BA68C3F8802008E07B6803F0C6
S2144023600803002B03D0FB68BA68C3F88420FB68D8
S214402370BA685A61FB68BA681A6000BF1037BD4633
S21440238080BD00BF6D2540009921400080B584B0D7
S21440239000AFF860B9607A603B60B968F868124B85
S2144023A09847BA69B968F868104B98473B68002B5D
S2144023B003D0FB68BA681A6502E0FB68BA685A65DB
S2144023C07B68002B03D0FB68BA681A6302E0FB68A0
S2144023D0BA685A63FB68BA681A61FB68BA681A60DA
S2144023E000BF1037BD4680BD6D2540009921400096
S2144023F090B587B002AFF860B9607A603B60BB6862
S214402400B3F1005F16D0B3F1005F09D8B3F1805F37
S21440241010D0B3F1C05F0DD0B3F1006F0AD03DE0ED
S214402420B3F1405F1AD0B3F1605F17D0B3F1205FCD
S2144024300ED033E07A68B968F8681C4B98473B681A
S21440244003F001031A467968F868194B984727E065
S2144024503A687968F868174B984721E0BB68B3F14B
S214402460605F0CBF01230023DBB21A463B6803F0D3
S2144024700403002B14BF01230023DBB219463B683C
S21440248003F00103002B14BF01230023DBB20093AB
S2144024900B467968F868084CA04701E0002300E046
S2144024A0012318461437BD4690BD00BFFD214000AD
S2144024B0992140000D2340008D23400080B483B016
S2144024C000AF786039607B689A6B3B681340002B9E
S2144024D001D1002300E0012318460C37BD465DF8C5
S2144024E0047B704780B485B000AFF860B9607A600E
S2144024F07B6803F01003002B20D0FB68BA68C3F853
S214402500B0207B6803F02003002B04D0FB68BA6839
S214402510C3F8D42003E0FB68BA68C3F8D0207B68D1
S21440252003F04003002B04D0FB68BA68C3F8C02011
S21440253008E0FB68BA68C3F8C42003E0FB68BA68E2
S214402540C3F8B42000BF1437BD465DF8047B70471F
S21440255080B483B000AF786039607B683A681A64AC
S21440256000BF0C37BD465DF8047B704780B483B02F
S21440257000AF786039607B683A685A6400BF0C37B1
S214402580BD465DF8047B704780B483B000AF78608A
S2144025907B68DB6C18460C37BD465DF8047B70479D
S2144025A080B483B000AF78607B689B6C18460C376D
S2144025B0BD465DF8047B704780B584B000AF786058
S2144025C039607868264B9847F8607868254B984776
S2144025D00246FB681340FB60FB68002B3CD00023A0
S2144025E0BB6034E0204ABB681B0113441A683B6852
S2144025F09A4226D11C4ABB681B01134404331A680E
S214402600FB681340002B1CD0174ABB681B011344C1
S2144026100C331B681449BA6812010A441068124900
S214402620BA6812010A4404321268114698470E4AA4
S214402630BB681B01134404331B68DB43FA68134032
S214402640FB60BB680133BB60BB68062B03D8FB68E6
S214402650002BC7D100E000BF00BF1037BD4680BD8D
S21440266089254000A12540007006402080B586B0F0
S21440267000AFF860B9607A603B60214B1B68062B60
S21440268001D9012338E00023FB7511E0FB7D1B01D7
S2144026901C4A13443B613B691A68BB689A4204D1A2
S2144026A03B695A687B689A4208D0FB7D0133FB75CC
S2144026B0FA7D134B1B689A42E8D900E000BF3B699D
S2144026C0BA681A603B697A685A603B693A689A60A9
S2144026D03B693A6ADA60FA7D094B1B6801339A42D5
S2144026E004D1074B1B680133054A13603A68796882
S2144026F0F868054B9847002318461837BD4680BDF6
S214402700E006402070064020E524400080B500AF3B
S2144027100A210248024B984700BF80BD000E0E407B
S214402720B925400080B500AF0B210248024B9847C0
S21440273000BF80BD00100E40B925400080B500AFF8
S2144027400C210248024B984700BF80BD00120E4045
S214402750B925400080B500AF10210248024B98478B
S21440276000BF80BD00140E40B925400080B500AFC4
S21440277011210248024B984700BF80BD00160E400C
S214402780B925400080B483B000AF78607B68013BD9
S214402790032B1AD801A252F823F000BFAD27400001
S2144027A0B3274000BB274000C327400000237B6080
S2144027B00EE04FF480737B600AE04FF440737B601A
S2144027C006E04FF400737B6002E000237B6000BFAE
S2144027D00A490A4B1B6B23F440727B6813430B6316
S2144027E000BF064B9B6E03F00803002BF9D000BFDA
S2144027F00C37BD465DF8047B704700BF00060E40B0
S21440280080B485B000AF78601D491D4B1B6B23F02C
S21440281070027B6813430B634FF48053FB6007E002
S214402820FB68002B01D1012323E0FB68013BFB60E2
S214402830134B9B6E03F00803002BF1D0104A104B4D
S2144028401B6B23F0030343F0020313634FF48053E0
S214402850FB6007E0FB68002B01D1012309E0FB6821
S214402860013BFB60064B9B6E03F00803002BF1D048
S214402870002318461437BD465DF8047B704700BFFA
S21440288000060E4080B483B000AF78607B68012BB2
S21440289005D10749064B9A68064B13438B60044B99
S2144028A0054A1A6000BF0C37BD465DF8047B70478A
S2144028B010180E40000010A5080000A580B400AF18
S2144028C0094B5B6903F08003002B07D0074B9B6ED8
S2144028D003F08003002B01D0012300E000231846BC
S2144028E0BD465DF8047B704710180E4000060E404B
S2144028F080B483B000AF78601549154B1A6A154B03
S21440290013430B6200BF124B9B6E03F40033002B45
S214402910F9D00F490E4B1A6A0F4B13407A6813438F
S21440292043F45C130B6200BF094B9B6E03F4003309
S214402930002BF9D00649064B1A6A084B134043F45D
S2144029405C130B6200BF0C37BD465DF8047B7047D6
S21440295000060E40080037008FFFC8FFFFFFC8FE86
S21440296080B483B000AF786039607B68002B08D0B5
S2144029701349134B1B6A134A1A40134B13430B62FB
S21440298018E00F490E4B1A6A104B13403A68120271
S21440299092B21A430E4B13430B6200BF084B9B6E1A
S2144029A003F00103002BF9D00549054B1A6A094B81
S2144029B013430B6200BF0C37BD465DF8047B70477F
S2144029C000060E40FCFFC8FE02003701FCFFC8FFB1
S2144029D0010037000000370180B400AF044B9B6E07
S2144029E003F480331846BD465DF8047B704700BF4D
S2144029F000060E4080B400AF044B4FF000529A627F
S214402A0000BFBD465DF8047B704700BF00060E4021
S214402A1080B400AF044B9B6E03F002031846BD46DD
S214402A205DF8047B704700BF00060E4080B400AFE0
S214402A30044B9B6E03F040031846BD465DF8047B8E
S214402A40704700BF00060E4080B483B000AF786089
S214402A507B683F2B01D901232FE07B681F2B13D8BF
S214402A60194B9A6901217B6801FA03F31A40012148
S214402A707B6801FA03F39A421ED0134A01217B6811
S214402A8001FA03F3136117E07B68203B7B600E4B33
S214402A90D3F8082101217B6801FA03F31A4001218B
S214402AA07B6801FA03F39A4206D0074A01217B6805
S214402AB001FA03F3C2F80031002318460C37BD462E
S214402AC05DF8047B704700BF00060E4080B483B0BC
S214402AD000AFEFF310837B607B68002B0CBF0123B5
S214402AE00023DBB23B6072B6BFF35F8F044B00221D
S214402AF01A703B6818460C37BD465DF8047B704735
S214402B001800402080B483B000AF78607B68002B0C
S214402B1014BF01230023DBB218460C37BD465DF8D0
S214402B20047B704780B582B000AF78607868074B0A
S214402B3098470346002B05D0054B01221A70BFF379
S214402B405F8F62B600BF0837BD4680BD052B40008C
S214402B501800402080B584B000AF1E4BFB601E4B73
S214402B60BB60FA68BB689A420CD007E0BB681A1D87
S214402B70BA60FA68111DF96012681A60BB68174A95
S214402B809342F3D3164BBB6004E0BB681A1DBA6091
S214402B9000221A60BB68134A9342F6D3124BFB607E
S214402BA0124AFB6823F07F039360114B9847786086
S214402BB0104A104B1B6843F470031360BFF34F8FEB
S214402BC0BFF36F8F78680C4B98470C4B98470C4B6D
S214402BD09847FEE740454000000040204C04402017
S214402BE04C0440200C0740200000400000ED00E070
S214402BF0CD2A400088ED00E0252B400019394000E2
S214402C000533400080B400AFFEE7000080B400AF5C
S214402C10524B1B6B03F00303012B14D0012B02D342
S214402C20022B38D07AE04E4B5B6903F08003002BD2
S214402C3004D04C4B4FF400421A606FE0494B4FF4BF
S214402C40FA421A606AE0454B1B6A03F08073002B19
S214402C5003D0444B444A1A6060E0424B434A1A60F1
S214402C603E4B1B6A03F07003102B04D0202B08D079
S214402C70002B0ED00EE03B4B1B685B00394A1360BE
S214402C8008E0384B1A6813465B001344354A136015
S214402C9000E000BF42E0314B1B6A03F08073002B1C
S214402CA003D0304B304A1A601CE02E4B2F4A1A6035
S214402CB02A4B1B6A03F07003102B04D0202B08D03D
S214402CC0002B0ED00EE0274B1B685B00254A136096
S214402CD008E0244B1A6813465B001344214A1360ED
S214402CE000E000BF1D4B1B6B03F00303022B14D107
S214402CF01A4B9B6A1B0CC3F30A030133194A12682A
S214402D0002FB03F3174A1360144B9B6ADBB2154A67
S214402D101268B2FBF3F3134A136000BF0F4B1B6BF2
S214402D2003F07003702B08D10E4B1B68104AA2FBB1
S214402D3003235B080B4A13600AE0084B1B6B1B0916
S214402D4003F00703074A126822FA03F3054A1360A2
S214402D5000BFBD465DF8047B704700BF00060E40CE
S214402D6010180E401C004020001BB70000093D0014
S214402D70ABAAAAAA80B483B000AF78607B681D4A2D
S214402D80934204D81C4B4FF080621A602BE07B685D
S214402D901A4A934203D8184B194A1A6023E07B68B4
S214402DA0184A934203D8144B174A1A601BE07B68B4
S214402DB0164A934203D8104B154A1A6013E07B68B4
S214402DC0144A934204D80C4B4FF004221A600AE08F
S214402DD07B68114A934203D8074B104A1A6002E0B8
S214402DE0054B0F4A1A6000BF0C37BD465DF8047BA2
S214402DF0704700BFBFF35E01000C0E407FE7BD0288
S214402E00000100043FDB1C0400020004FFCE7B05EB
S214402E1000030004BFC2DA067FB639080005000486
S214402E200006000480B483B000AF0346FB71094936
S214402E3097F907305B09FA7902F01F02012000FA81
S214402E4002F241F8232000BF0C37BD465DF8047BF4
S214402E50704700BF00E100E080B483B000AF034697
S214402E603960FB7197F90730002B0BDA0D49FB7977
S214402E7003F00F03043B3A68D2B25201D2B20B447D
S214402E801A7609E0084997F907303A68D2B25201F3
S214402E90D2B20B4483F8002300BF0C37BD465DF822
S214402EA0047B704700ED00E000E100E080B400AF36
S214402EB0064B00221A70064B00221A70054B002261
S214402EC01A7000BFBD465DF8047B7047E50640209B
S214402ED0E7064020E606402098B500AF064B0522A0
S214402EE000210648064CA047034B10220021034809
S214402EF0034CA04700BF98BD0C004020D044400083
S214402F00990E400090B583B000AF7860044B102215
S214402F1000217868034CA04700BF0C37BD4690BDE3
S214402F200C004020990E400080B582B000AF78601B
S214402F30396039687868094B98470346002B04D0B7
S214402F4039687868064B984703E039687868054BD7
S214402F50984700BF0837BD4680BD00BFBD2440002F
S214402F60E1214000C521400080B500AF012107485F
S214402F70074B98474FF080410648054B9847042139
S214402F800548034B984700BF80BD00BF000E0E406B
S214402F90292F400000120E4000100E4080B500AFB2
S214402FA001210748074B98474FF080410648054B9C
S214402FB0984704210548034B984700BF80BD00BF93
S214402FC0000E0E40E121400000120E4000100E4060
S214402FD080B400AF034B01221A7000BFBD465DF8B7
S214402FE0047B7047E506402080B400AF034B0122C7
S214402FF01A7000BFBD465DF8047B7047E706402068
S21440300080B400AF034B01221A7000BFBD465DF886
S214403010047B7047E606402080B485B000AF7860F9
S21440302039603B681B68FB60214B1B78DBB2002B8A
S2144030300BD0FB689B007A68134401221A60FB6839
S2144030400133FB601A4B00221A701A4B1B78DBB216
S214403050002B0BD0FB689B007A68134402221A6050
S214403060FB680133FB60134B00221A70124B1B782F
S214403070DBB2002B0BD0FB689B007A68134403221C
S2144030801A60FB680133FB600B4B00221A703B68EA
S2144030901A68FB689A4204D03B68FA681A600123B3
S2144030A000E0002318461437BD465DF8047B7047A1
S2144030B0E5064020E7064020E606402080B489B07A
S2144030C000AFF860B9607A600023FB611CE0FB69E2
S2144030D09B00FA6813441B68BB61FB699B00BA6897
S2144030E013441B687B61FB699B00FA6813441A68AB
S2144030F0FB699B00B9680B441B689A4201D00023C9
S21440310007E0FB690133FB61FA697B689A42DEDBC4
S214403110012318462437BD465DF8047B70470000FF
S21440312080B582B000AF0848084B984778607B6807
S21440313003F00103002B02D0054B01221A7000BF9A
S2144031400837BD4680BD00BF30180E40DB02400049
S214403150E406402080B582B000AF00210548064B0B
S214403160984703467B60054B984700BF0837BD46E7
S21440317080BD00BF00C000407B074000692F400074
S21440318080B582B000AF01210548064B98470346FC
S2144031907B60054B984700BF0837BD4680BD00BFE3
S2144031A000C000407B074000692F400090B583B0C8
S2144031B002AF0A20454B98470C20444B98470B20BB
S2144031C0424B98471020414B98470C203F4B98471E
S2144031D00A203E4B9847002301224FF060513C485E
S2144031E03C4CA04700234FF080424FF060513A4895
S2144031F0384CA047002304224FF060513748354CE6
S214403200A04709234FF080524FF020513448314CAC
S214403210A04709234FF000424FF020512E482D4C36
S214403220A04709234FF400224FF020512848294C4C
S214403230A0472C4B009350234FF080521021284833
S214403240294CA047294B009350234FF000420C21B5
S2144032502148254CA047264B009350234FF400228C
S2144032600A211B48204CA0474FF080511C48214B58
S21440327098474FF0004118481E4B98474FF400219E
S21440328013481C4B984716481B4B984712481A4BF6
S21440329098470F48184B98471020184B98470421DA
S2144032A01020174B98470C20144B984704210C20AD
S2144032B0134B98470A20114B984704210A20104B7D
S2144032C0984700BF0437BD4690BD00BF492A40001E
S2144032D0000E0E40F123400000120E4000100E403B
S2144032E000140E40D12F40006D264000E92F4000CC
S2144032F0013040005125400089254000252E4000E1
S214403300592E40002DE9F04F8DB000AFA44B9847A2
S214403310A44B9847A44B9847A44B984705230022B4
S2144033201721A348A34CA047022301221821A048F6
S214403330A04CA04706237B627A6A531E3B62134624
S2144033404FF0000461017960796841EAD3617960A1
S2144033505B013B6013464FF000044FEA441B4BEAC8
S214403360D36B4FEA431A13469B0003330733DB08FD
S214403370DB00ADEB030D6B4603339B089B00FB6104
S2144033807A6A531EBB6113464FF000044FEA441955
S21440339049EAD3694FEA431813464FF000046601E2
S2144033A046EAD3665D0113469B0003330733DB08CA
S2144033B0DB00ADEB030D6B4603339B089B007B6144
S2144033C00023BB6000233B610023FB62012387F898
S2144033D02B307948794B984797F82B30013B032B95
S2144033E0FAD801A252F823F0F93340005534400091
S2144033F03935400061354000BB68052B0CDD0023A5
S214403400BB606F4B98476F4B9847022387F82B302B
S2144034106D486A4B9847BAE0FB6907F108021146C7
S21440342018466A4B984738613B69002B00F0AF80DE
S214403430BB68012B01D1624B9847BB68DBB21A468A
S214403440920013445B00D9B2614B10226148624C33
S214403450A0479CE0614B1B78DBB2002B09D00023D1
S214403460BB60574B98475E48544B98475B4B00228F
S2144034701A70BB68052B3BDD0023BB60504B98475A
S214403480FB6979697A6A1846564B9847F860FB6834
S214403490002B0CD0032387F82B305348474B9847D4
S2144034A0524B984700214248514B984771E00423BD
S2144034B087F82B30FB6A002B09D04FF4803220214E
S2144034C04FF081404B4B98470023FB6208E04FF497
S2144034D0803210214FF08140464B98470123FB62D3
S2144034E001213348424B98474348344B984750E075
S2144034F07B6907F1080211461846344B98473861F5
S2144035003B69002B45D04FF4803210214FF081406C
S214403510384B9847BB68012B01D1294B9847BB686D
S214403520DBB21A46920013445B00D9B2284B1022F5
S2144035302848294CA0472CE0304B1B78DBB2002BA8
S21440354029D01F4B984726481C4B9847022387F89C
S2144035502B30002116482A4B98472A4B98471AE0AA
S2144035601E4B1B78DBB2002B17D0154B98471C48D8
S214403570124B9847022387F82B30184B00221A70BC
S21440358001210B481E4B98471E4B984705E000BF4D
S21440359022E700BF20E700BF1EE700BF1CE700BFD2
S2144035A015214000511C4000AD3140009D0F4000A9
S2144035B000C00040DD094000E0444000052F4000C8
S2144035C0D92E40009D2F4000EC444000193040006A
S2144035D00C004020F4444000990E4000E406402091
S2144035E0F8444000BD30400000454000692F400090
S2144035F0E9064000810A400008454000E5064020B4
S2144036000B074000AD2E400053B94AB9002908BF09
S21440361000281CBF4FF0FF314FF0FF3000F07AB962
S214403620ADF1080C6DE904CE00F006F8DDF804E0D4
S214403630DDE9022304B070472DE9F0478C460D467D
S2144036400446089E002B51D18A4217466DD9B2FADD
S21440365082FEBEF1000F0BD0CEF1200C01FA0EF523
S21440366020FA0CFC02FA0EF74CEA050C00FA0EF4AF
S2144036704FEA174A250CBCFBFAF81FFA87F90AFBF3
S21440368018CC45EA0C4508FB09F3AB420AD9ED19BC
S21440369008F1FF3280F02381AB4240F22081A8F14E
S2144036A002083D44ED1AA4B2B5FBFAF00AFB1055E9
S2144036B044EA054400FB09F9A14509D9E41900F19B
S2144036C0FF3380F00A81A14540F2078102383C442E
S2144036D0A4EB090440EA08400021002E61D024FAF9
S2144036E00EF4002334607360BDE8F0878B4207D940
S2144036F0002E54D0002186E821000846BDE8F08719
S214403700B3FA83F1002940F08E80AB4202D3824266
S21440371000F2FA80841A65EB03050120AC46002EC1
S2144037203FD086E81010BDE8F08712B90127B7FBF6
S214403730F2F7B7FA87FEBEF1000F34D1EB1B3A0C16
S2144037401FFA87FC0121B3FBF2F8250C02FB183365
S21440375045EA03450CFB08F3AB4207D9ED1908F1DF
S214403760FF3002D2AB4200F2D1808046ED1AA3B2BF
S214403770B5FBF2F002FB105543EA05440CFB00FC97
S214403780A44507D9E41900F1FF3302D2A44500F25C
S214403790B8801846A4EB0C0440EA08409DE7314642
S2144037A03046BDE8F087CEF1200405FA0EF307FA5E
S2144037B00EF720FA04F83A0C25FA04F448EA03080F
S2144037C0B4FBF2F14FEA184502FB11441FFA87FC9E
S2144037D045EA044501FB0CF3AB4200FA0EF409D966
S2144037E0ED1901F1FF3080F08A80AB4240F28780CD
S2144037F002393D44EB1A1FFA88F5B3FBF2F002FBA0
S214403800103345EA034500FB0CF3AB4207D9ED19EC
S21440381000F1FF386FD2AB426DD902383D44EB1A07
S21440382040EA01418FE7C1F1200722FA07F88B40B2
S21440383005FA01F448EA030320FA07FE4FEA134C60
S214403840FD404EEA040EB5FBFCF94FEA1E440CFB65
S21440385019551FFA83F844EA054509FB08F4AC42BB
S21440386002FA01F200FA01FA08D9ED1809F1FF3020
S21440387043D2AC4241D9A9F102091D442D1B1FFA7F
S2144038808EFEB5FBFCF00CFB10554EEA054400FBE3
S21440389008F8A04507D9E41800F1FF3529D2A0451D
S2144038A027D902381C4440EA0940A4EB0804A0FB90
S2144038B002894C45C6464D4615D312D056B1BAEB92
S2144038C00E0364EB050404FA07F7CB401F43CC40D5
S2144038D0376074600021BDE8F0871846F8E69046E9
S2144038E0E0E6C245EAD2B8EB020E69EB03050138C2
S2144038F0E4E72846D7E7404691E78146BEE70146DB
S21440390078E702383C4445E7084608E7A8F102084D
S2144039103D442BE7704700BF70B50F4E0F4D761BEA
S214403920B61018BF002405D0013455F8043B98471C
S214403930A642F9D10A4E0B4D761B00F0EBFDB610B1
S21440394018BF002406D0013455F8043B9847A642D9
S214403950F9D170BD70BD00BF2045400020454000F5
S2144039602845400020454000024B13B1024800F075
S21440397005B8704700000000893940000023014622
S2144039801A46184600F01EB838B50A4C0A4D641B55
S214403990A4100AD004F18043013B05EB8305013CAB
S2144039A055F804399847002CF9D1BDE8384000F066
S2144039B0BBBD00BF3845400034454000704700BF9F
S2144039C0704700BF2DE9F8432C4D064628689846B8
S2144039D00F469146FFF7F2FF294B1C68D4F8483152
S2144039E0002B3ED05A681F2A1CDC02F1010E76B12D
S2144039F003EB82010124C1F88890D3F888019440F3
S214403A002043022EC3F88801C1F8088123D0023231
S214403A10C3F804E0286843F82270FFF7D1FF00207F
S214403A20BDE8F883174B0BB34FF4C870AFF3008074
S214403A300346D8B1D4F848210260002141600A46C6
S214403A40C4F848014FF0010EC0F88811C0F88C1138
S214403A50002EDCD0CCE7D3F88C110C43C3F88C4155
S214403A60D5E704F5A673C4F84831BBE72868FFF7E6
S214403A70A7FF4FF0FF30BDE8F88300BF4804402062
S214403A80104540000000000000000000000000005C
S214403A9000000000000000000000000000000000E1
S214403AA00000000000000000300030003000300011
S214403AB03000300000003000300000000000000001
S214403AC0000000006C006C006C006C000000000001
S214403AD000000000000000000000000000000000A1
S214403AE00000280028007C00280028007C002800D1
S214403AF028000000000000000000000010003C000D
S214403B00400020001000080004007800100000006C
S214403B10000000000000000000007C00A400A80098
S214403B205000280054009400880000000000000068
S214403B30000000006000900090009000600094003C
S214403B4088008800700000000000000000000000B0
S214403B5010001000100000000000000000000000F0
S214403B6000000000000000000000000008001000F8
S214403B702000200020002000200020001000080028
S214403B8000000000000000002000100008000800B0
S214403B900800080008000800100020000000000090
S214403BA00000280010007C001000280000000000E4
S214403BB000000000000000000000000000000000C0
S214403BC000000000100010001000FE001000100062
S214403BD01000000000000000000000000000000090
S214403BE00000000000000000000000001000300050
S214403BF02000000000000000000000000000000060
S214403C0000007C00000000000000000000000000F3
S214403C10000000000000000000000000000000005F
S214403C2000003000300000000000000000000000EF
S214403C30000008000800100010002000200040008F
S214403C404000000000000000000000000000780077
S214403C5084008C009400A400C40084007800000017
S214403C60000000000000000000001000300050007F
S214403C7010001000100010007C0000000000000043
S214403C8000000000000070008800080010002000BF
S214403C9040008000F8000000000000000000000027
S214403CA00000700088000800300008000800880007
S214403CB07000000000000000000000000000080047
S214403CC01800280048008800FC0008000800000093
S214403CD00000000000000000000078008000800027
S214403CE0F000080008000800F00000000000000097
S214403CF0000000000000300040008000F000880017
S214403D0088008800700000000000000000000000EE
S214403D100000F800080010001000200020004000BE
S214403D20400000000000000000000000000070009E
S214403D3088008800700088008800880070000000B6
S214403D4000000000000000000000700088008800AE
S214403D5088007800080010006000000000000000A6
S214403D6000000000000000000000300030000000AE
S214403D70000030003000000000000000000000009E
S214403D80000000000000300030000000000030005E
S214403D90300060004000000000000000000000000E
S214403DA0080010002000400020001000080000001E
S214403DB000000000000000000000000000000000BE
S214403DC07C0000007C0000000000000000000000B6
S214403DD00000000000000000400020001000080026
S214403DE0100020004000000000000000000000001E
S214403DF000003000480008001000200000000000CE
S214403E00200000000000000000000000000000004D
S214403E103C0042009A00AA00AA00BE00800078003B
S214403E2000000000000000000000100028002800ED
S214403E3044007C00440044004400000000000000B1
S214403E40000000000000F80084008400F8008400B1
S214403E5084008400F800000000000000000000001D
S214403E6000003C0040008000800080008000400051
S214403E703C00000000000000000000000000F000D1
S214403E80880084008400840084008800F0000000DD
S214403E9000000000000000000000F80080008000E5
S214403EA0F000800080008000F80000000000000065
S214403EB0000000000000F80080008000F80080004D
S214403EC0800080008000000000000000000000002D
S214403ED000003C004000800080009C0084004400BD
S214403EE038000000000000000000000000008800CD
S214403EF088008800F8008800880088008800000055
S214403F0000000000000000000000F8002000200034
S214403F102000200020002000F800000000000000E4
S214403F20000000000000F800080008000800080034
S214403F3008000800F000000000000000000000003C
S214403F400000840088009000A000D0008800840014
S214403F508400000000000000000000000000800018
S214403F60800080008000800080008000FC00000010
S214403F70000000000000000000008400CC00CC00E0
S214403F80B400B400840084008400000000000000F8
S214403F900000000000008400C400C400A400A40088
S214403FA0940094008C000000000000000000000018
S214403FB0000078008400840084008400840084002C
S214403FC07800000000000000000000000000F8003C
S214403FD0840084008400F800800080008000000098
S214403FE0000000000000000000007800840084000C
S214403FF084008400840084007800200018000000BC
S214404000000000000000F800840084008400F800EF
S21440401088008400840000000000000000000000CB
S21440402000007C008000800060001800040004004F
S214404030F800000000000000000000000000F8004B
S214404040200020002000200020002000200000004B
S214404050000000000000000000008400840084008F
S2144040608400840084008400780000000000000083
S21440407000000000000084008400840048004800DF
S2144040804800300030000000000000000000000043
S21440409000008800A800A800A800A800A8005000BB
S2144040A050000000000000000000000000008800F3
S2144040B08800500020002000500088008800000043
S2144040C00000000000000000000088008800880013
S2144040D0500050002000200020000000000000009B
S2144040E0000000000000FC00040008001000200053
S2144040F040008000FC0000000000000000000000BF
S214404100700040004000400040004000400040003A
S21440411040004000700000000000000040004000EA
S21440412020002000200010001000100008000800AA
S21440413000000000000000003800080008000800EA
S21440414008000800080008000800080038000000C2
S214404150000000001000280044000000000000009E
S214404160000000000000000000000000000000000A
S21440417000000000000000000000000000000000FA
S2144041803800000000000000000000000000200092
S21440419010000000000000000000000000000000CA
S2144041A0000000000000000000000000000070005A
S2144041B008000800780088007C000000000000002E
S2144041C000000000800080008000F800840084002A
S2144041D084008400F800000000000000000000009A
S2144041E00000000000007800800080008000800012
S2144041F078000000000000000000000004000400FA
S21440420004007C008400840084008C00740000005D
S21440421000000000000000000000000000007800E1
S2144042208400FC00800080007C000000000000004D
S214404230000000001C0020002000FC0020002000A1
S21440424020002000FC0000000000000000000000ED
S2144042500000000000007C0084008400840084008D
S2144042607C00040078000000000000008000800011
S2144042708000B800C40084008400840084000000ED
S2144042800000000000000000000010000000700069
S21440429010001000100010007C000000000000001D
S2144042A00000000000000800000078000800080039
S2144042B00800080008000800080070000000000021
S2144042C080008000800088009000A000D000880019
S2144042D0880000000000000000000000E000200011
S2144042E0200020002000200020002000F8000000D1
S2144042F00000000000000000000000000000A400D5
S214404300FC00A400A400A400A400000000000000DC
S21440431000000000000000000000B800C400840058
S21440432084008400840000000000000000000000BC
S21440433000000000000078008400840084008400B0
S21440434078000000000000000000000000000000B0
S2144043500000B800C400840084008400F800800098
S21440436080000000000000000000000000007C000C
S21440437084008400840084007C0004000400000064
S21440438000000000000000000000D8006000400070
S21440439040004000F0000000000000000000000068
S2144043A00000000000007800800040003000080058
S2144043B0F0000000000000000000000000000000C8
S2144043C02000FC0020002000200020001C000000F0
S2144043D00000000000000000000000000000880010
S2144043E088008800880088007C00000000000000EC
S2144043F000000000000000000000840084008400EC
S21440440048004800300000000000000000000000A7
S2144044100000000000008800A800A800A800A8002F
S21440442050000000000000000000000000000000F7
S2144044300000880050002000200050008800000047
S21440444000000000000000000000000000008400A3
S2144044508400480048003000100020004000000063
S21440446000000000000000000000F80008001000F7
S21440447020004000F800000000000000000000009F
S2144044801000200020001000200020001000200017
S2144044902000100000000000000000001000100087
S2144044A01000100000000000100010001000100067
S2144044B00000000000000000200010001000200057
S2144044C01000100020001000100020000000000027
S2144044D020202020202020202020202020000000F7
S2144044E07365742070617373776400006C6F636BE0
S2144044F0656400002A0000006C6F636B00000000DB
S2144045006F70656E00000000626C6F636B000000A9
S21440451020004020F8B500BFF8BC08BC9E46704757
S2144045206939400065014000F8B500BFF8BC08BCDA
S20C4045309E4670474101400021
S20C40453800F1FF7F01000000C6
S214404540BFF35F8F0138FBD17047000000000000CA
S214404550883A40000A0E207D0100000000093D0018
S214404560000000000C03402074034020DC03402081
S21440457000000000000000000000000000000000F6
S21440458000000000000000000000000000000000E6
S21440459000000000000000000000000000000000D6
S2144045A000000000000000000000000000000000C6
S2144045B000000000000000000000000000000000B6
S2144045C000000000000000000000000000000000A6
S2144045D00000000000000000000000000000000096
S2144045E00000000000000000000000000000000086
S2144045F00000000000000000000000000000000076
S2144046000000000000000000010000000000000064
S2144046100E33CDAB34126DE6ECDE05000B00000029
S2144046200000000000000000000000000000000045
S2144046300000000000000000000000000000000035
S2144046400000000000000000000000000000000025
S2144046500000000000000000000000000000000015
S2104049800000000000000000E806402098
S804402B553B
